{
  "contractName": "swapToken",
  "abi": [
    {
      "inputs": [
        {
          "internalType": "address payable",
          "name": "_wallet",
          "type": "address"
        }
      ],
      "payable": false,
      "stateMutability": "nonpayable",
      "type": "constructor"
    },
    {
      "anonymous": false,
      "inputs": [
        {
          "indexed": false,
          "internalType": "address",
          "name": "buyer",
          "type": "address"
        },
        {
          "indexed": false,
          "internalType": "uint256",
          "name": "amount",
          "type": "uint256"
        }
      ],
      "name": "Purchase",
      "type": "event"
    },
    {
      "constant": true,
      "inputs": [],
      "name": "getWallet",
      "outputs": [
        {
          "internalType": "address payable",
          "name": "",
          "type": "address"
        }
      ],
      "payable": false,
      "stateMutability": "view",
      "type": "function"
    },
    {
      "constant": false,
      "inputs": [
        {
          "internalType": "uint256",
          "name": "noEther",
          "type": "uint256"
        }
      ],
      "name": "buyToken",
      "outputs": [],
      "payable": false,
      "stateMutability": "nonpayable",
      "type": "function"
    }
  ],
  "bytecode": "0x608060405234801561001057600080fd5b5060405161027c38038061027c8339818101604052602081101561003357600080fd5b8101908080519060200190929190505050806000806101000a81548173ffffffffffffffffffffffffffffffffffffffff021916908373ffffffffffffffffffffffffffffffffffffffff160217905550506101e8806100946000396000f3fe608060405234801561001057600080fd5b50600436106100365760003560e01c8063132996041461003b5780632d296bf114610085575b600080fd5b6100436100b3565b604051808273ffffffffffffffffffffffffffffffffffffffff1673ffffffffffffffffffffffffffffffffffffffff16815260200191505060405180910390f35b6100b16004803603602081101561009b57600080fd5b81019080803590602001909291905050506100dc565b005b60008060009054906101000a900473ffffffffffffffffffffffffffffffffffffffff16905090565b6000809054906101000a900473ffffffffffffffffffffffffffffffffffffffff1673ffffffffffffffffffffffffffffffffffffffff166108fc829081150290604051600060405180830381858888f19350505050158015610143573d6000803e3d6000fd5b507f2499a5330ab0979cc612135e7883ebc3cd5c9f7a8508f042540c34723348f632336001604051808373ffffffffffffffffffffffffffffffffffffffff1673ffffffffffffffffffffffffffffffffffffffff1681526020018281526020019250505060405180910390a15056fea265627a7a72315820e78ce391638cb601d580b074692be8ef2eb2c60c50a11b3065a844d52117b1f464736f6c63430005100032",
  "source": "\npragma solidity ^0.5.11;\n\ncontract swapToken{\n   \n    \n    \n    address payable mainWallet;\n    \n    event Purchase(\n        \n        address buyer,\n        uint256 amount\n        \n    );\n    \n    \n    //set the one who deploys the contract as the main wallet\n    constructor (address payable  _wallet) public{\n        \n        mainWallet=_wallet;\n        \n    }\n\n    function getWallet() public view returns (address payable){\n\n\n      return mainWallet;\n    }\n    \n    function buyToken(uint256 noEther) external {\n        \n        \n        //send ether to main wallet\n        //msg.value is the value we put into the right hand side.the amount of ether.\n        \n        \n        mainWallet.transfer(noEther);\n         emit Purchase(msg.sender,1);\n        \n        \n    }\n    \n    \n    \n    \n    \n    \n    \n    \n    \n    \n    \n    \n    \n    \n}\n",
  "sourcePath": "C:/Users/zahir/dApps/swapToken/contracts/swapToken.sol",
  "compiler": {
    "name": "solc",
    "version": "0.5.16+commit.9c3226ce.Emscripten.clang"
  },
  "schemaVersion": "3.3.4",
  "updatedAt": "2021-03-26T09:11:08.603Z",
  "networkType": "ethereum",
  "devdoc": {
    "methods": {}
  },
  "userdoc": {
    "methods": {}
  }
}