{
  "contractName": "houseLease",
  "abi": [
    {
      "inputs": [],
      "payable": false,
      "stateMutability": "nonpayable",
      "type": "constructor"
    },
    {
      "anonymous": false,
      "inputs": [
        {
          "indexed": false,
          "internalType": "string",
          "name": "doorCode",
          "type": "string"
        },
        {
          "indexed": false,
          "internalType": "string",
          "name": "leaseId",
          "type": "string"
        },
        {
          "indexed": false,
          "internalType": "uint256",
          "name": "timestamp",
          "type": "uint256"
        }
      ],
      "name": "doorCodeSent",
      "type": "event"
    },
    {
      "anonymous": false,
      "inputs": [
        {
          "indexed": false,
          "internalType": "string",
          "name": "landlordName",
          "type": "string"
        },
        {
          "indexed": false,
          "internalType": "address payable",
          "name": "_landlordAddr",
          "type": "address"
        },
        {
          "indexed": false,
          "internalType": "string",
          "name": "home_addr",
          "type": "string"
        },
        {
          "indexed": false,
          "internalType": "uint256",
          "name": "timestamp",
          "type": "uint256"
        },
        {
          "indexed": false,
          "internalType": "uint256",
          "name": "value",
          "type": "uint256"
        },
        {
          "indexed": false,
          "internalType": "string",
          "name": "leaseId",
          "type": "string"
        }
      ],
      "name": "leaseCreated",
      "type": "event"
    },
    {
      "anonymous": false,
      "inputs": [
        {
          "indexed": false,
          "internalType": "string",
          "name": "leaseId",
          "type": "string"
        },
        {
          "indexed": false,
          "internalType": "uint256",
          "name": "value",
          "type": "uint256"
        }
      ],
      "name": "refundDone",
      "type": "event"
    },
    {
      "anonymous": false,
      "inputs": [
        {
          "indexed": false,
          "internalType": "string",
          "name": "leaseId",
          "type": "string"
        },
        {
          "indexed": false,
          "internalType": "uint256",
          "name": "value",
          "type": "uint256"
        }
      ],
      "name": "sendPayoutDone",
      "type": "event"
    },
    {
      "anonymous": false,
      "inputs": [
        {
          "indexed": false,
          "internalType": "address",
          "name": "tenant",
          "type": "address"
        },
        {
          "indexed": false,
          "internalType": "string",
          "name": "leaseId",
          "type": "string"
        },
        {
          "indexed": false,
          "internalType": "uint256",
          "name": "value",
          "type": "uint256"
        },
        {
          "indexed": false,
          "internalType": "uint256",
          "name": "timestamp",
          "type": "uint256"
        }
      ],
      "name": "tenantPay",
      "type": "event"
    },
    {
      "constant": true,
      "inputs": [],
      "name": "holdingWalletAddr",
      "outputs": [
        {
          "internalType": "address payable",
          "name": "",
          "type": "address"
        }
      ],
      "payable": false,
      "stateMutability": "view",
      "type": "function"
    },
    {
      "constant": false,
      "inputs": [
        {
          "internalType": "string",
          "name": "landlordName",
          "type": "string"
        },
        {
          "internalType": "string",
          "name": "home_addr",
          "type": "string"
        },
        {
          "internalType": "uint256",
          "name": "timestamp",
          "type": "uint256"
        },
        {
          "internalType": "uint256",
          "name": "value",
          "type": "uint256"
        },
        {
          "internalType": "string",
          "name": "leaseId",
          "type": "string"
        }
      ],
      "name": "createLease",
      "outputs": [],
      "payable": false,
      "stateMutability": "nonpayable",
      "type": "function"
    },
    {
      "constant": true,
      "inputs": [
        {
          "internalType": "string",
          "name": "leaseId",
          "type": "string"
        }
      ],
      "name": "getLeaseData",
      "outputs": [
        {
          "internalType": "string",
          "name": "landlordName",
          "type": "string"
        },
        {
          "internalType": "uint256",
          "name": "value",
          "type": "uint256"
        }
      ],
      "payable": false,
      "stateMutability": "view",
      "type": "function"
    },
    {
      "constant": false,
      "inputs": [
        {
          "internalType": "string",
          "name": "leaseId",
          "type": "string"
        },
        {
          "internalType": "string",
          "name": "tenantName",
          "type": "string"
        }
      ],
      "name": "makePayment",
      "outputs": [],
      "payable": false,
      "stateMutability": "nonpayable",
      "type": "function"
    },
    {
      "constant": false,
      "inputs": [
        {
          "internalType": "string",
          "name": "doorCode",
          "type": "string"
        },
        {
          "internalType": "string",
          "name": "leaseId",
          "type": "string"
        }
      ],
      "name": "giveDoorCode",
      "outputs": [],
      "payable": false,
      "stateMutability": "nonpayable",
      "type": "function"
    },
    {
      "constant": true,
      "inputs": [
        {
          "internalType": "string",
          "name": "leaseId",
          "type": "string"
        }
      ],
      "name": "getDoorCode",
      "outputs": [
        {
          "internalType": "string",
          "name": "",
          "type": "string"
        }
      ],
      "payable": false,
      "stateMutability": "view",
      "type": "function"
    },
    {
      "constant": false,
      "inputs": [
        {
          "internalType": "string",
          "name": "leaseId",
          "type": "string"
        }
      ],
      "name": "sendPayout",
      "outputs": [],
      "payable": false,
      "stateMutability": "nonpayable",
      "type": "function"
    },
    {
      "constant": false,
      "inputs": [
        {
          "internalType": "string",
          "name": "leaseId",
          "type": "string"
        }
      ],
      "name": "refund",
      "outputs": [],
      "payable": false,
      "stateMutability": "nonpayable",
      "type": "function"
    }
  ],
  "bytecode": "0x608060405234801561001057600080fd5b50336000806101000a81548173ffffffffffffffffffffffffffffffffffffffff021916908373ffffffffffffffffffffffffffffffffffffffff1602179055506123a0806100606000396000f3fe608060405234801561001057600080fd5b50600436106100885760003560e01c80639c6436d61161005b5780639c6436d6146104ca578063ba9b92f8146105fe578063c2b6bd6a146106cc578063fe5f2e881461081e57610088565b80630cc2d2561461008d57806335f796631461028a57806345ea4797146102d457806359b3ef641461040f575b600080fd5b610288600480360360a08110156100a357600080fd5b81019080803590602001906401000000008111156100c057600080fd5b8201836020820111156100d257600080fd5b803590602001918460018302840111640100000000831117156100f457600080fd5b91908080601f016020809104026020016040519081016040528093929190818152602001838380828437600081840152601f19601f8201169050808301925050505050505091929192908035906020019064010000000081111561015757600080fd5b82018360208201111561016957600080fd5b8035906020019184600183028401116401000000008311171561018b57600080fd5b91908080601f016020809104026020016040519081016040528093929190818152602001838380828437600081840152601f19601f82011690508083019250505050505050919291929080359060200190929190803590602001909291908035906020019064010000000081111561020257600080fd5b82018360208201111561021457600080fd5b8035906020019184600183028401116401000000008311171561023657600080fd5b91908080601f016020809104026020016040519081016040528093929190818152602001838380828437600081840152601f19601f8201169050808301925050505050505091929192905050506108d9565b005b610292610bd8565b604051808273ffffffffffffffffffffffffffffffffffffffff1673ffffffffffffffffffffffffffffffffffffffff16815260200191505060405180910390f35b61038d600480360360208110156102ea57600080fd5b810190808035906020019064010000000081111561030757600080fd5b82018360208201111561031957600080fd5b8035906020019184600183028401116401000000008311171561033b57600080fd5b91908080601f016020809104026020016040519081016040528093929190818152602001838380828437600081840152601f19601f820116905080830192505050505050509192919290505050610bfd565b6040518080602001838152602001828103825284818151815260200191508051906020019080838360005b838110156103d35780820151818401526020810190506103b8565b50505050905090810190601f1680156104005780820380516001836020036101000a031916815260200191505b50935050505060405180910390f35b6104c86004803603602081101561042557600080fd5b810190808035906020019064010000000081111561044257600080fd5b82018360208201111561045457600080fd5b8035906020019184600183028401116401000000008311171561047657600080fd5b91908080601f016020809104026020016040519081016040528093929190818152602001838380828437600081840152601f19601f820116905080830192505050505050509192919290505050610e44565b005b610583600480360360208110156104e057600080fd5b81019080803590602001906401000000008111156104fd57600080fd5b82018360208201111561050f57600080fd5b8035906020019184600183028401116401000000008311171561053157600080fd5b91908080601f016020809104026020016040519081016040528093929190818152602001838380828437600081840152601f19601f82011690508083019250505050505050919291929050505061124f565b6040518080602001828103825283818151815260200191508051906020019080838360005b838110156105c35780820151818401526020810190506105a8565b50505050905090810190601f1680156105f05780820380516001836020036101000a031916815260200191505b509250505060405180910390f35b6106ca6004803603604081101561061457600080fd5b810190808035906020019064010000000081111561063157600080fd5b82018360208201111561064357600080fd5b8035906020019184600183028401116401000000008311171561066557600080fd5b90919293919293908035906020019064010000000081111561068657600080fd5b82018360208201111561069857600080fd5b803590602001918460018302840111640100000000831117156106ba57600080fd5b909192939192939050505061135a565b005b61081c600480360360408110156106e257600080fd5b81019080803590602001906401000000008111156106ff57600080fd5b82018360208201111561071157600080fd5b8035906020019184600183028401116401000000008311171561073357600080fd5b91908080601f016020809104026020016040519081016040528093929190818152602001838380828437600081840152601f19601f8201169050808301925050505050505091929192908035906020019064010000000081111561079657600080fd5b8201836020820111156107a857600080fd5b803590602001918460018302840111640100000000831117156107ca57600080fd5b91908080601f016020809104026020016040519081016040528093929190818152602001838380828437600081840152601f19601f8201169050808301925050505050505091929192905050506117f1565b005b6108d76004803603602081101561083457600080fd5b810190808035906020019064010000000081111561085157600080fd5b82018360208201111561086357600080fd5b8035906020019184600183028401116401000000008311171561088557600080fd5b91908080601f016020809104026020016040519081016040528093929190818152602001838380828437600081840152601f19601f820116905080830192505050505050509192919290505050611c2f565b005b6040518060a001604052808681526020018581526020018481526020018381526020013373ffffffffffffffffffffffffffffffffffffffff168152506001826040518082805190602001908083835b6020831061094c5780518252602082019150602081019050602083039250610929565b6001836020036101000a0380198251168184511680821785525050505050509050019150509081526020016040518091039020600082015181600001908051906020019061099b9291906121ca565b5060208201518160010190805190602001906109b89291906121ca565b50604082015181600201556060820151816003015560808201518160040160006101000a81548173ffffffffffffffffffffffffffffffffffffffff021916908373ffffffffffffffffffffffffffffffffffffffff1602179055509050507f7f527750ba085eaeb146c111998d65c6b84decb5aea60ccc92c1544baad5692a85338686868660405180806020018773ffffffffffffffffffffffffffffffffffffffff1673ffffffffffffffffffffffffffffffffffffffff168152602001806020018681526020018581526020018060200184810384528a818151815260200191508051906020019080838360005b83811015610ac4578082015181840152602081019050610aa9565b50505050905090810190601f168015610af15780820380516001836020036101000a031916815260200191505b50848103835288818151815260200191508051906020019080838360005b83811015610b2a578082015181840152602081019050610b0f565b50505050905090810190601f168015610b575780820380516001836020036101000a031916815260200191505b50848103825285818151815260200191508051906020019080838360005b83811015610b90578082015181840152602081019050610b75565b50505050905090810190601f168015610bbd5780820380516001836020036101000a031916815260200191505b50995050505050505050505060405180910390a15050505050565b6000809054906101000a900473ffffffffffffffffffffffffffffffffffffffff1681565b60606000610c0961224a565b6001846040518082805190602001908083835b60208310610c3f5780518252602082019150602081019050602083039250610c1c565b6001836020036101000a03801982511681845116808217855250505050505090500191505090815260200160405180910390206040518060a0016040529081600082018054600181600116156101000203166002900480601f016020809104026020016040519081016040528092919081815260200182805460018160011615610100020316600290048015610d165780601f10610ceb57610100808354040283529160200191610d16565b820191906000526020600020905b815481529060010190602001808311610cf957829003601f168201915b50505050508152602001600182018054600181600116156101000203166002900480601f016020809104026020016040519081016040528092919081815260200182805460018160011615610100020316600290048015610db85780601f10610d8d57610100808354040283529160200191610db8565b820191906000526020600020905b815481529060010190602001808311610d9b57829003601f168201915b5050505050815260200160028201548152602001600382015481526020016004820160009054906101000a900473ffffffffffffffffffffffffffffffffffffffff1673ffffffffffffffffffffffffffffffffffffffff1673ffffffffffffffffffffffffffffffffffffffff16815250509050806000015181606001518191509250925050915091565b60006003826040518082805190602001908083835b60208310610e7c5780518252602082019150602081019050602083039250610e59565b6001836020036101000a03801982511681845116808217855250505050505090500191505090815260200160405180910390208054600181600116156101000203166002900490501415610ecf57600080fd5b6000809054906101000a900473ffffffffffffffffffffffffffffffffffffffff1673ffffffffffffffffffffffffffffffffffffffff163373ffffffffffffffffffffffffffffffffffffffff1614610f2857600080fd5b610f3061224a565b6001826040518082805190602001908083835b60208310610f665780518252602082019150602081019050602083039250610f43565b6001836020036101000a03801982511681845116808217855250505050505090500191505090815260200160405180910390206040518060a0016040529081600082018054600181600116156101000203166002900480601f01602080910402602001604051908101604052809291908181526020018280546001816001161561010002031660029004801561103d5780601f106110125761010080835404028352916020019161103d565b820191906000526020600020905b81548152906001019060200180831161102057829003601f168201915b50505050508152602001600182018054600181600116156101000203166002900480601f0160208091040260200160405190810160405280929190818152602001828054600181600116156101000203166002900480156110df5780601f106110b4576101008083540402835291602001916110df565b820191906000526020600020905b8154815290600101906020018083116110c257829003601f168201915b5050505050815260200160028201548152602001600382015481526020016004820160009054906101000a900473ffffffffffffffffffffffffffffffffffffffff1673ffffffffffffffffffffffffffffffffffffffff1673ffffffffffffffffffffffffffffffffffffffff16815250509050806080015173ffffffffffffffffffffffffffffffffffffffff166108fc82606001519081150290604051600060405180830381858888f193505050501580156111a2573d6000803e3d6000fd5b507f502fd503dee68d5237b499c5171efce66dc4bff943289797bf2f18d0d8b7eb4a8282606001516040518080602001838152602001828103825284818151815260200191508051906020019080838360005b838110156112105780820151818401526020810190506111f5565b50505050905090810190601f16801561123d5780820380516001836020036101000a031916815260200191505b50935050505060405180910390a15050565b60606003826040518082805190602001908083835b602083106112875780518252602082019150602081019050602083039250611264565b6001836020036101000a03801982511681845116808217855250505050505090500191505090815260200160405180910390208054600181600116156101000203166002900480601f01602080910402602001604051908101604052809291908181526020018280546001816001161561010002031660029004801561134e5780601f106113235761010080835404028352916020019161134e565b820191906000526020600020905b81548152906001019060200180831161133157829003601f168201915b50505050509050919050565b61136261224a565b6001858560405180838380828437808301925050509250505090815260200160405180910390206040518060a0016040529081600082018054600181600116156101000203166002900480601f01602080910402602001604051908101604052809291908181526020018280546001816001161561010002031660029004801561142d5780601f106114025761010080835404028352916020019161142d565b820191906000526020600020905b81548152906001019060200180831161141057829003601f168201915b50505050508152602001600182018054600181600116156101000203166002900480601f0160208091040260200160405190810160405280929190818152602001828054600181600116156101000203166002900480156114cf5780601f106114a4576101008083540402835291602001916114cf565b820191906000526020600020905b8154815290600101906020018083116114b257829003601f168201915b5050505050815260200160028201548152602001600382015481526020016004820160009054906101000a900473ffffffffffffffffffffffffffffffffffffffff1673ffffffffffffffffffffffffffffffffffffffff1673ffffffffffffffffffffffffffffffffffffffff1681525050905080604001514211156115be576040517f08c379a00000000000000000000000000000000000000000000000000000000081526004018080602001828103825260188152602001807f54696d65206578706972656420666f72207061796d656e74000000000000000081525060200191505060405180910390fd5b6000809054906101000a900473ffffffffffffffffffffffffffffffffffffffff1673ffffffffffffffffffffffffffffffffffffffff166108fc82606001519081150290604051600060405180830381858888f19350505050158015611629573d6000803e3d6000fd5b50604051806060016040528084848080601f016020809104026020016040519081016040528093929190818152602001838380828437600081840152601f19601f820116905080830192505050505050508152602001826060015181526020013373ffffffffffffffffffffffffffffffffffffffff1681525060028686604051808383808284378083019250505092505050908152602001604051809103902060008201518160000190805190602001906116e69291906121ca565b506020820151816001015560408201518160020160006101000a81548173ffffffffffffffffffffffffffffffffffffffff021916908373ffffffffffffffffffffffffffffffffffffffff1602179055509050507f4a7e3cdde8630446a134c876314295c0643545da4fc0d3f547b9044559ee7e2e33868684606001518560400151604051808673ffffffffffffffffffffffffffffffffffffffff1673ffffffffffffffffffffffffffffffffffffffff168152602001806020018481526020018381526020018281038252868682818152602001925080828437600081840152601f19601f820116905080830192505050965050505050505060405180910390a15050505050565b6117f961224a565b6001826040518082805190602001908083835b6020831061182f578051825260208201915060208101905060208303925061180c565b6001836020036101000a03801982511681845116808217855250505050505090500191505090815260200160405180910390206040518060a0016040529081600082018054600181600116156101000203166002900480601f0160208091040260200160405190810160405280929190818152602001828054600181600116156101000203166002900480156119065780601f106118db57610100808354040283529160200191611906565b820191906000526020600020905b8154815290600101906020018083116118e957829003601f168201915b50505050508152602001600182018054600181600116156101000203166002900480601f0160208091040260200160405190810160405280929190818152602001828054600181600116156101000203166002900480156119a85780601f1061197d576101008083540402835291602001916119a8565b820191906000526020600020905b81548152906001019060200180831161198b57829003601f168201915b5050505050815260200160028201548152602001600382015481526020016004820160009054906101000a900473ffffffffffffffffffffffffffffffffffffffff1673ffffffffffffffffffffffffffffffffffffffff1673ffffffffffffffffffffffffffffffffffffffff168152505090508060400151421115611a97576040517f08c379a000000000000000000000000000000000000000000000000000000000815260040180806020018281038252600d8152602001807f54696d6520657870697265642e0000000000000000000000000000000000000081525060200191505060405180910390fd5b826003836040518082805190602001908083835b60208310611ace5780518252602082019150602081019050602083039250611aab565b6001836020036101000a03801982511681845116808217855250505050505090500191505090815260200160405180910390209080519060200190611b1492919061228f565b507f3375d0b034f52a6a64cd5b8a844719a7de8a2a9855426a6b395cbe376cb11d8c83838360400151604051808060200180602001848152602001838103835286818151815260200191508051906020019080838360005b83811015611b87578082015181840152602081019050611b6c565b50505050905090810190601f168015611bb45780820380516001836020036101000a031916815260200191505b50838103825285818151815260200191508051906020019080838360005b83811015611bed578082015181840152602081019050611bd2565b50505050905090810190601f168015611c1a5780820380516001836020036101000a031916815260200191505b509550505050505060405180910390a1505050565b611c3761224a565b6001826040518082805190602001908083835b60208310611c6d5780518252602082019150602081019050602083039250611c4a565b6001836020036101000a03801982511681845116808217855250505050505090500191505090815260200160405180910390206040518060a0016040529081600082018054600181600116156101000203166002900480601f016020809104026020016040519081016040528092919081815260200182805460018160011615610100020316600290048015611d445780601f10611d1957610100808354040283529160200191611d44565b820191906000526020600020905b815481529060010190602001808311611d2757829003601f168201915b50505050508152602001600182018054600181600116156101000203166002900480601f016020809104026020016040519081016040528092919081815260200182805460018160011615610100020316600290048015611de65780601f10611dbb57610100808354040283529160200191611de6565b820191906000526020600020905b815481529060010190602001808311611dc957829003601f168201915b5050505050815260200160028201548152602001600382015481526020016004820160009054906101000a900473ffffffffffffffffffffffffffffffffffffffff1673ffffffffffffffffffffffffffffffffffffffff1673ffffffffffffffffffffffffffffffffffffffff1681525050905080604001514211611e6b57600080fd5b60006003836040518082805190602001908083835b60208310611ea35780518252602082019150602081019050602083039250611e80565b6001836020036101000a038019825116818451168082178552505050505050905001915050908152602001604051809103902080546001816001161561010002031660029004905014611ef557600080fd5b6000809054906101000a900473ffffffffffffffffffffffffffffffffffffffff1673ffffffffffffffffffffffffffffffffffffffff163373ffffffffffffffffffffffffffffffffffffffff1614611f4e57600080fd5b611f5661230f565b6002836040518082805190602001908083835b60208310611f8c5780518252602082019150602081019050602083039250611f69565b6001836020036101000a0380198251168184511680821785525050505050509050019150509081526020016040518091039020604051806060016040529081600082018054600181600116156101000203166002900480601f0160208091040260200160405190810160405280929190818152602001828054600181600116156101000203166002900480156120635780601f1061203857610100808354040283529160200191612063565b820191906000526020600020905b81548152906001019060200180831161204657829003601f168201915b50505050508152602001600182015481526020016002820160009054906101000a900473ffffffffffffffffffffffffffffffffffffffff1673ffffffffffffffffffffffffffffffffffffffff1673ffffffffffffffffffffffffffffffffffffffff16815250509050806040015173ffffffffffffffffffffffffffffffffffffffff166108fc82602001519081150290604051600060405180830381858888f1935050505015801561211c573d6000803e3d6000fd5b507ff7800aba2ca3d82da5a758cb27bef1e918b1f2e874d337454de7d9ac31dc70a68382602001516040518080602001838152602001828103825284818151815260200191508051906020019080838360005b8381101561218a57808201518184015260208101905061216f565b50505050905090810190601f1680156121b75780820380516001836020036101000a031916815260200191505b50935050505060405180910390a1505050565b828054600181600116156101000203166002900490600052602060002090601f016020900481019282601f1061220b57805160ff1916838001178555612239565b82800160010185558215612239579182015b8281111561223857825182559160200191906001019061221d565b5b5090506122469190612346565b5090565b6040518060a0016040528060608152602001606081526020016000815260200160008152602001600073ffffffffffffffffffffffffffffffffffffffff1681525090565b828054600181600116156101000203166002900490600052602060002090601f016020900481019282601f106122d057805160ff19168380011785556122fe565b828001600101855582156122fe579182015b828111156122fd5782518255916020019190600101906122e2565b5b50905061230b9190612346565b5090565b60405180606001604052806060815260200160008152602001600073ffffffffffffffffffffffffffffffffffffffff1681525090565b61236891905b8082111561236457600081600090555060010161234c565b5090565b9056fea265627a7a723158201129be8ec716946cd4dbdcd4df8701b972d15721aaf7870518afec596a1c480964736f6c63430005100032",
  "source": "pragma solidity ^0.5.16;\n\n\ncontract houseLease{\n    \n     \n    address payable public holdingWalletAddr;\n    \n    \n    \n    \n    \n    mapping (string=>Landlord)   leaseLandlord;\n    mapping(string=>Tenant)    leaseTenant;\n    mapping (string=>string)  door_codes;\n    \n    // Event trigger when the buyer performs the safepay\n   event tenantPay(address tenant, string leaseId, uint value, uint256 timestamp);\n   event doorCodeSent(string  doorCode,string  leaseId,uint256 timestamp);\n   event leaseCreated(string  landlordName,address payable _landlordAddr,string  home_addr,uint256 timestamp,uint256 value,string  leaseId);\n   event refundDone(string leaseId,uint256 value);\n   event sendPayoutDone(string leaseId,uint256 value);\n   \n    \n    \n    struct Landlord{\n        string landlordName;\n        string home_addr;\n        uint256 timestamp; //timestamp is in unix timestamp\n        uint256 value;//number of wei to pay for house\n        address payable _landlordAddr;\n        \n     }\n     \n     struct Tenant{\n         string tenantName;\n         uint256 value;//in wei\n         address payable _tenantAddr;\n         \n         \n     }\n     \n     \n    \n    \n    \n    //the one who deploys the contract is the holding wallet\n    constructor() public{\n        \n        holdingWalletAddr= msg.sender;\n        \n    }\n    //function called by landlord\n    function createLease(string memory landlordName,string memory home_addr,uint256 timestamp,uint256 value,string memory leaseId) public {\n        //value in wei\n        leaseLandlord[leaseId]=Landlord(landlordName,home_addr,timestamp,value,msg.sender);\n        emit leaseCreated(landlordName,msg.sender,home_addr,timestamp,value,leaseId);\n        \n        \n    }\n\n    function getLeaseData(string memory leaseId) public view returns (string memory landlordName, uint256 value){\n        \n        Landlord memory p = leaseLandlord[leaseId];\n        \n\t    return (p.landlordName, p.value);\n\n      \n    }\n    \n    //function called by tenant\n    function makePayment(string calldata  leaseId,string calldata  tenantName)  external  {\n        \n       \n        Landlord memory p = leaseLandlord[leaseId];\n        \n        require(block.timestamp <= p.timestamp, \"Time expired for payment\");\n        \n        holdingWalletAddr.transfer(p.value);\n        \n        leaseTenant[leaseId]=Tenant(tenantName,p.value,msg.sender);\n        emit tenantPay(msg.sender,leaseId,p.value,p.timestamp);\n        \n        \n        \n    }\n    //function called by landlord\n    function giveDoorCode(string memory doorCode,string memory leaseId)  public{\n        \n        Landlord memory p = leaseLandlord[leaseId];\n        require(block.timestamp <= p.timestamp, \"Time expired.\");\n        door_codes[leaseId]=doorCode;\n        \n        emit doorCodeSent(doorCode,leaseId,p.timestamp);\n        \n    }\n    \n    function getDoorCode(string memory leaseId) public view returns (string memory) {\n        \n        return door_codes[leaseId];\n        \n        \n    }\n    \n    //money paid out to landlord\n    function sendPayout(string memory leaseId) public {\n        \n        require(bytes(door_codes[leaseId]).length!=0);//landlord give door code\n        require(msg.sender==holdingWalletAddr);\n        \n        Landlord memory p = leaseLandlord[leaseId];\n        p._landlordAddr.transfer(p.value);\n        \n        emit sendPayoutDone(leaseId,p.value);\n        \n        \n        \n    }\n    \n    function refund(string memory leaseId) public {\n        \n        \n        Landlord memory p = leaseLandlord[leaseId];\n        require(block.timestamp > p.timestamp);\n        require(bytes(door_codes[leaseId]).length==0);//landlord did not give door code\n        require(msg.sender==holdingWalletAddr);\n        \n        Tenant memory t = leaseTenant[leaseId];\n        t._tenantAddr.transfer(t.value);\n        emit refundDone(leaseId,t.value);\n        \n    }\n    \n    \n    \n    \n   \n    \n    \n   \n    \n    \n    \n    \n    \n    \n    \n    \n}\n\n\n ",
  "sourcePath": "C:/Users/zahir/dApps/houseLease/contracts/houseLease.sol",
  "compiler": {
    "name": "solc",
    "version": "0.5.16+commit.9c3226ce.Emscripten.clang"
  },
  "schemaVersion": "3.3.4",
  "updatedAt": "2021-03-26T17:00:23.383Z",
  "networkType": "ethereum",
  "devdoc": {
    "methods": {}
  },
  "userdoc": {
    "methods": {}
  }
}