{
  "contractName": "houseLease",
  "abi": [
    {
      "inputs": [
        {
          "internalType": "address payable",
          "name": "_holdingWalletAddr",
          "type": "address"
        },
        {
          "internalType": "address",
          "name": "_token",
          "type": "address"
        }
      ],
      "payable": false,
      "stateMutability": "nonpayable",
      "type": "constructor"
    },
    {
      "anonymous": false,
      "inputs": [
        {
          "indexed": false,
          "internalType": "string",
          "name": "doorCode",
          "type": "string"
        },
        {
          "indexed": false,
          "internalType": "string",
          "name": "leaseId",
          "type": "string"
        },
        {
          "indexed": false,
          "internalType": "uint256",
          "name": "timestamp",
          "type": "uint256"
        }
      ],
      "name": "doorCodeSent",
      "type": "event"
    },
    {
      "anonymous": false,
      "inputs": [
        {
          "indexed": false,
          "internalType": "string",
          "name": "landlordName",
          "type": "string"
        },
        {
          "indexed": false,
          "internalType": "address payable",
          "name": "_landlordAddr",
          "type": "address"
        },
        {
          "indexed": false,
          "internalType": "string",
          "name": "home_addr",
          "type": "string"
        },
        {
          "indexed": false,
          "internalType": "uint256",
          "name": "timestamp",
          "type": "uint256"
        },
        {
          "indexed": false,
          "internalType": "uint256",
          "name": "value",
          "type": "uint256"
        },
        {
          "indexed": false,
          "internalType": "string",
          "name": "leaseId",
          "type": "string"
        }
      ],
      "name": "leaseCreated",
      "type": "event"
    },
    {
      "anonymous": false,
      "inputs": [
        {
          "indexed": false,
          "internalType": "string",
          "name": "leaseId",
          "type": "string"
        },
        {
          "indexed": false,
          "internalType": "uint256",
          "name": "value",
          "type": "uint256"
        }
      ],
      "name": "refundDone",
      "type": "event"
    },
    {
      "anonymous": false,
      "inputs": [
        {
          "indexed": false,
          "internalType": "string",
          "name": "leaseId",
          "type": "string"
        },
        {
          "indexed": false,
          "internalType": "uint256",
          "name": "value",
          "type": "uint256"
        }
      ],
      "name": "sendPayoutDone",
      "type": "event"
    },
    {
      "anonymous": false,
      "inputs": [
        {
          "indexed": false,
          "internalType": "address",
          "name": "tenant",
          "type": "address"
        },
        {
          "indexed": false,
          "internalType": "string",
          "name": "leaseId",
          "type": "string"
        },
        {
          "indexed": false,
          "internalType": "uint256",
          "name": "value",
          "type": "uint256"
        },
        {
          "indexed": false,
          "internalType": "uint256",
          "name": "timestamp",
          "type": "uint256"
        }
      ],
      "name": "tenantPay",
      "type": "event"
    },
    {
      "constant": true,
      "inputs": [],
      "name": "holdingWalletAddr",
      "outputs": [
        {
          "internalType": "address payable",
          "name": "",
          "type": "address"
        }
      ],
      "payable": false,
      "stateMutability": "view",
      "type": "function"
    },
    {
      "constant": true,
      "inputs": [],
      "name": "token",
      "outputs": [
        {
          "internalType": "address",
          "name": "",
          "type": "address"
        }
      ],
      "payable": false,
      "stateMutability": "view",
      "type": "function"
    },
    {
      "constant": false,
      "inputs": [
        {
          "internalType": "string",
          "name": "landlordName",
          "type": "string"
        },
        {
          "internalType": "string",
          "name": "home_addr",
          "type": "string"
        },
        {
          "internalType": "uint256",
          "name": "timestamp",
          "type": "uint256"
        },
        {
          "internalType": "uint256",
          "name": "value",
          "type": "uint256"
        },
        {
          "internalType": "string",
          "name": "leaseId",
          "type": "string"
        }
      ],
      "name": "createLease",
      "outputs": [],
      "payable": false,
      "stateMutability": "nonpayable",
      "type": "function"
    },
    {
      "constant": true,
      "inputs": [
        {
          "internalType": "string",
          "name": "leaseId",
          "type": "string"
        }
      ],
      "name": "getLeaseData",
      "outputs": [
        {
          "internalType": "string",
          "name": "landlordName",
          "type": "string"
        },
        {
          "internalType": "uint256",
          "name": "value",
          "type": "uint256"
        }
      ],
      "payable": false,
      "stateMutability": "view",
      "type": "function"
    },
    {
      "constant": false,
      "inputs": [
        {
          "internalType": "string",
          "name": "leaseId",
          "type": "string"
        },
        {
          "internalType": "string",
          "name": "tenantName",
          "type": "string"
        }
      ],
      "name": "makePayment",
      "outputs": [],
      "payable": false,
      "stateMutability": "nonpayable",
      "type": "function"
    },
    {
      "constant": false,
      "inputs": [
        {
          "internalType": "string",
          "name": "doorCode",
          "type": "string"
        },
        {
          "internalType": "string",
          "name": "leaseId",
          "type": "string"
        }
      ],
      "name": "giveDoorCode",
      "outputs": [],
      "payable": false,
      "stateMutability": "nonpayable",
      "type": "function"
    },
    {
      "constant": true,
      "inputs": [
        {
          "internalType": "string",
          "name": "leaseId",
          "type": "string"
        }
      ],
      "name": "getDoorCode",
      "outputs": [
        {
          "internalType": "string",
          "name": "",
          "type": "string"
        }
      ],
      "payable": false,
      "stateMutability": "view",
      "type": "function"
    },
    {
      "constant": false,
      "inputs": [
        {
          "internalType": "string",
          "name": "leaseId",
          "type": "string"
        }
      ],
      "name": "sendPayout",
      "outputs": [],
      "payable": false,
      "stateMutability": "nonpayable",
      "type": "function"
    },
    {
      "constant": false,
      "inputs": [
        {
          "internalType": "string",
          "name": "leaseId",
          "type": "string"
        }
      ],
      "name": "refund",
      "outputs": [],
      "payable": false,
      "stateMutability": "nonpayable",
      "type": "function"
    }
  ],
  "bytecode": "0x608060405234801561001057600080fd5b506040516128673803806128678339818101604052604081101561003357600080fd5b810190808051906020019092919080519060200190929190505050816000806101000a81548173ffffffffffffffffffffffffffffffffffffffff021916908373ffffffffffffffffffffffffffffffffffffffff16021790555080600160006101000a81548173ffffffffffffffffffffffffffffffffffffffff021916908373ffffffffffffffffffffffffffffffffffffffff1602179055505050612787806100e06000396000f3fe608060405234801561001057600080fd5b50600436106100935760003560e01c80639c6436d6116100665780639c6436d6146104d5578063ba9b92f814610609578063c2b6bd6a1461075b578063fc0c546a146108ad578063fe5f2e88146108f757610093565b80630cc2d2561461009857806335f796631461029557806345ea4797146102df57806359b3ef641461041a575b600080fd5b610293600480360360a08110156100ae57600080fd5b81019080803590602001906401000000008111156100cb57600080fd5b8201836020820111156100dd57600080fd5b803590602001918460018302840111640100000000831117156100ff57600080fd5b91908080601f016020809104026020016040519081016040528093929190818152602001838380828437600081840152601f19601f8201169050808301925050505050505091929192908035906020019064010000000081111561016257600080fd5b82018360208201111561017457600080fd5b8035906020019184600183028401116401000000008311171561019657600080fd5b91908080601f016020809104026020016040519081016040528093929190818152602001838380828437600081840152601f19601f82011690508083019250505050505050919291929080359060200190929190803590602001909291908035906020019064010000000081111561020d57600080fd5b82018360208201111561021f57600080fd5b8035906020019184600183028401116401000000008311171561024157600080fd5b91908080601f016020809104026020016040519081016040528093929190818152602001838380828437600081840152601f19601f8201169050808301925050505050505091929192905050506109b2565b005b61029d610cb1565b604051808273ffffffffffffffffffffffffffffffffffffffff1673ffffffffffffffffffffffffffffffffffffffff16815260200191505060405180910390f35b610398600480360360208110156102f557600080fd5b810190808035906020019064010000000081111561031257600080fd5b82018360208201111561032457600080fd5b8035906020019184600183028401116401000000008311171561034657600080fd5b91908080601f016020809104026020016040519081016040528093929190818152602001838380828437600081840152601f19601f820116905080830192505050505050509192919290505050610cd6565b6040518080602001838152602001828103825284818151815260200191508051906020019080838360005b838110156103de5780820151818401526020810190506103c3565b50505050905090810190601f16801561040b5780820380516001836020036101000a031916815260200191505b50935050505060405180910390f35b6104d36004803603602081101561043057600080fd5b810190808035906020019064010000000081111561044d57600080fd5b82018360208201111561045f57600080fd5b8035906020019184600183028401116401000000008311171561048157600080fd5b91908080601f016020809104026020016040519081016040528093929190818152602001838380828437600081840152601f19601f820116905080830192505050505050509192919290505050610f1d565b005b61058e600480360360208110156104eb57600080fd5b810190808035906020019064010000000081111561050857600080fd5b82018360208201111561051a57600080fd5b8035906020019184600183028401116401000000008311171561053c57600080fd5b91908080601f016020809104026020016040519081016040528093929190818152602001838380828437600081840152601f19601f8201169050808301925050505050505091929192905050506113cc565b6040518080602001828103825283818151815260200191508051906020019080838360005b838110156105ce5780820151818401526020810190506105b3565b50505050905090810190601f1680156105fb5780820380516001836020036101000a031916815260200191505b509250505060405180910390f35b6107596004803603604081101561061f57600080fd5b810190808035906020019064010000000081111561063c57600080fd5b82018360208201111561064e57600080fd5b8035906020019184600183028401116401000000008311171561067057600080fd5b91908080601f016020809104026020016040519081016040528093929190818152602001838380828437600081840152601f19601f820116905080830192505050505050509192919290803590602001906401000000008111156106d357600080fd5b8201836020820111156106e557600080fd5b8035906020019184600183028401116401000000008311171561070757600080fd5b91908080601f016020809104026020016040519081016040528093929190818152602001838380828437600081840152601f19601f8201169050808301925050505050505091929192905050506114d7565b005b6108ab6004803603604081101561077157600080fd5b810190808035906020019064010000000081111561078e57600080fd5b8201836020820111156107a057600080fd5b803590602001918460018302840111640100000000831117156107c257600080fd5b91908080601f016020809104026020016040519081016040528093929190818152602001838380828437600081840152601f19601f8201169050808301925050505050505091929192908035906020019064010000000081111561082557600080fd5b82018360208201111561083757600080fd5b8035906020019184600183028401116401000000008311171561085957600080fd5b91908080601f016020809104026020016040519081016040528093929190818152602001838380828437600081840152601f19601f820116905080830192505050505050509192919290505050611a89565b005b6108b5611ec7565b604051808273ffffffffffffffffffffffffffffffffffffffff1673ffffffffffffffffffffffffffffffffffffffff16815260200191505060405180910390f35b6109b06004803603602081101561090d57600080fd5b810190808035906020019064010000000081111561092a57600080fd5b82018360208201111561093c57600080fd5b8035906020019184600183028401116401000000008311171561095e57600080fd5b91908080601f016020809104026020016040519081016040528093929190818152602001838380828437600081840152601f19601f820116905080830192505050505050509192919290505050611eed565b005b6040518060a001604052808681526020018581526020018481526020018381526020013373ffffffffffffffffffffffffffffffffffffffff168152506002826040518082805190602001908083835b60208310610a255780518252602082019150602081019050602083039250610a02565b6001836020036101000a03801982511681845116808217855250505050505090500191505090815260200160405180910390206000820151816000019080519060200190610a74929190612578565b506020820151816001019080519060200190610a91929190612578565b50604082015181600201556060820151816003015560808201518160040160006101000a81548173ffffffffffffffffffffffffffffffffffffffff021916908373ffffffffffffffffffffffffffffffffffffffff1602179055509050507f7f527750ba085eaeb146c111998d65c6b84decb5aea60ccc92c1544baad5692a85338686868660405180806020018773ffffffffffffffffffffffffffffffffffffffff1673ffffffffffffffffffffffffffffffffffffffff168152602001806020018681526020018581526020018060200184810384528a818151815260200191508051906020019080838360005b83811015610b9d578082015181840152602081019050610b82565b50505050905090810190601f168015610bca5780820380516001836020036101000a031916815260200191505b50848103835288818151815260200191508051906020019080838360005b83811015610c03578082015181840152602081019050610be8565b50505050905090810190601f168015610c305780820380516001836020036101000a031916815260200191505b50848103825285818151815260200191508051906020019080838360005b83811015610c69578082015181840152602081019050610c4e565b50505050905090810190601f168015610c965780820380516001836020036101000a031916815260200191505b50995050505050505050505060405180910390a15050505050565b6000809054906101000a900473ffffffffffffffffffffffffffffffffffffffff1681565b60606000610ce26125f8565b6002846040518082805190602001908083835b60208310610d185780518252602082019150602081019050602083039250610cf5565b6001836020036101000a03801982511681845116808217855250505050505090500191505090815260200160405180910390206040518060a0016040529081600082018054600181600116156101000203166002900480601f016020809104026020016040519081016040528092919081815260200182805460018160011615610100020316600290048015610def5780601f10610dc457610100808354040283529160200191610def565b820191906000526020600020905b815481529060010190602001808311610dd257829003601f168201915b50505050508152602001600182018054600181600116156101000203166002900480601f016020809104026020016040519081016040528092919081815260200182805460018160011615610100020316600290048015610e915780601f10610e6657610100808354040283529160200191610e91565b820191906000526020600020905b815481529060010190602001808311610e7457829003601f168201915b5050505050815260200160028201548152602001600382015481526020016004820160009054906101000a900473ffffffffffffffffffffffffffffffffffffffff1673ffffffffffffffffffffffffffffffffffffffff1673ffffffffffffffffffffffffffffffffffffffff16815250509050806000015181606001518191509250925050915091565b60006004826040518082805190602001908083835b60208310610f555780518252602082019150602081019050602083039250610f32565b6001836020036101000a03801982511681845116808217855250505050505090500191505090815260200160405180910390208054600181600116156101000203166002900490501415610fa857600080fd5b6000809054906101000a900473ffffffffffffffffffffffffffffffffffffffff1673ffffffffffffffffffffffffffffffffffffffff163373ffffffffffffffffffffffffffffffffffffffff161461100157600080fd5b6000600160009054906101000a900473ffffffffffffffffffffffffffffffffffffffff1690506110306125f8565b6002836040518082805190602001908083835b602083106110665780518252602082019150602081019050602083039250611043565b6001836020036101000a03801982511681845116808217855250505050505090500191505090815260200160405180910390206040518060a0016040529081600082018054600181600116156101000203166002900480601f01602080910402602001604051908101604052809291908181526020018280546001816001161561010002031660029004801561113d5780601f106111125761010080835404028352916020019161113d565b820191906000526020600020905b81548152906001019060200180831161112057829003601f168201915b50505050508152602001600182018054600181600116156101000203166002900480601f0160208091040260200160405190810160405280929190818152602001828054600181600116156101000203166002900480156111df5780601f106111b4576101008083540402835291602001916111df565b820191906000526020600020905b8154815290600101906020018083116111c257829003601f168201915b5050505050815260200160028201548152602001600382015481526020016004820160009054906101000a900473ffffffffffffffffffffffffffffffffffffffff1673ffffffffffffffffffffffffffffffffffffffff1673ffffffffffffffffffffffffffffffffffffffff168152505090508173ffffffffffffffffffffffffffffffffffffffff1663a9059cbb826080015183606001516040518363ffffffff1660e01b8152600401808373ffffffffffffffffffffffffffffffffffffffff1673ffffffffffffffffffffffffffffffffffffffff16815260200182815260200192505050602060405180830381600087803b1580156112e357600080fd5b505af11580156112f7573d6000803e3d6000fd5b505050506040513d602081101561130d57600080fd5b8101908080519060200190929190505050507f502fd503dee68d5237b499c5171efce66dc4bff943289797bf2f18d0d8b7eb4a8382606001516040518080602001838152602001828103825284818151815260200191508051906020019080838360005b8381101561138c578082015181840152602081019050611371565b50505050905090810190601f1680156113b95780820380516001836020036101000a031916815260200191505b50935050505060405180910390a1505050565b60606004826040518082805190602001908083835b6020831061140457805182526020820191506020810190506020830392506113e1565b6001836020036101000a03801982511681845116808217855250505050505090500191505090815260200160405180910390208054600181600116156101000203166002900480601f0160208091040260200160405190810160405280929190818152602001828054600181600116156101000203166002900480156114cb5780601f106114a0576101008083540402835291602001916114cb565b820191906000526020600020905b8154815290600101906020018083116114ae57829003601f168201915b50505050509050919050565b6000600160009054906101000a900473ffffffffffffffffffffffffffffffffffffffff1690506115066125f8565b6002846040518082805190602001908083835b6020831061153c5780518252602082019150602081019050602083039250611519565b6001836020036101000a03801982511681845116808217855250505050505090500191505090815260200160405180910390206040518060a0016040529081600082018054600181600116156101000203166002900480601f0160208091040260200160405190810160405280929190818152602001828054600181600116156101000203166002900480156116135780601f106115e857610100808354040283529160200191611613565b820191906000526020600020905b8154815290600101906020018083116115f657829003601f168201915b50505050508152602001600182018054600181600116156101000203166002900480601f0160208091040260200160405190810160405280929190818152602001828054600181600116156101000203166002900480156116b55780601f1061168a576101008083540402835291602001916116b5565b820191906000526020600020905b81548152906001019060200180831161169857829003601f168201915b5050505050815260200160028201548152602001600382015481526020016004820160009054906101000a900473ffffffffffffffffffffffffffffffffffffffff1673ffffffffffffffffffffffffffffffffffffffff1673ffffffffffffffffffffffffffffffffffffffff1681525050905080604001514211156117a4576040517f08c379a00000000000000000000000000000000000000000000000000000000081526004018080602001828103825260188152602001807f54696d65206578706972656420666f72207061796d656e74000000000000000081525060200191505060405180910390fd5b8173ffffffffffffffffffffffffffffffffffffffff1663a9059cbb6000809054906101000a900473ffffffffffffffffffffffffffffffffffffffff1683606001516040518363ffffffff1660e01b8152600401808373ffffffffffffffffffffffffffffffffffffffff1673ffffffffffffffffffffffffffffffffffffffff16815260200182815260200192505050602060405180830381600087803b15801561185057600080fd5b505af1158015611864573d6000803e3d6000fd5b505050506040513d602081101561187a57600080fd5b8101908080519060200190929190505050506040518060600160405280848152602001826060015181526020013373ffffffffffffffffffffffffffffffffffffffff168152506003856040518082805190602001908083835b602083106118f757805182526020820191506020810190506020830392506118d4565b6001836020036101000a03801982511681845116808217855250505050505090500191505090815260200160405180910390206000820151816000019080519060200190611946929190612578565b506020820151816001015560408201518160020160006101000a81548173ffffffffffffffffffffffffffffffffffffffff021916908373ffffffffffffffffffffffffffffffffffffffff1602179055509050507f4a7e3cdde8630446a134c876314295c0643545da4fc0d3f547b9044559ee7e2e338583606001518460400151604051808573ffffffffffffffffffffffffffffffffffffffff1673ffffffffffffffffffffffffffffffffffffffff16815260200180602001848152602001838152602001828103825285818151815260200191508051906020019080838360005b83811015611a46578082015181840152602081019050611a2b565b50505050905090810190601f168015611a735780820380516001836020036101000a031916815260200191505b509550505050505060405180910390a150505050565b611a916125f8565b6002826040518082805190602001908083835b60208310611ac75780518252602082019150602081019050602083039250611aa4565b6001836020036101000a03801982511681845116808217855250505050505090500191505090815260200160405180910390206040518060a0016040529081600082018054600181600116156101000203166002900480601f016020809104026020016040519081016040528092919081815260200182805460018160011615610100020316600290048015611b9e5780601f10611b7357610100808354040283529160200191611b9e565b820191906000526020600020905b815481529060010190602001808311611b8157829003601f168201915b50505050508152602001600182018054600181600116156101000203166002900480601f016020809104026020016040519081016040528092919081815260200182805460018160011615610100020316600290048015611c405780601f10611c1557610100808354040283529160200191611c40565b820191906000526020600020905b815481529060010190602001808311611c2357829003601f168201915b5050505050815260200160028201548152602001600382015481526020016004820160009054906101000a900473ffffffffffffffffffffffffffffffffffffffff1673ffffffffffffffffffffffffffffffffffffffff1673ffffffffffffffffffffffffffffffffffffffff168152505090508060400151421115611d2f576040517f08c379a000000000000000000000000000000000000000000000000000000000815260040180806020018281038252600d8152602001807f54696d6520657870697265642e0000000000000000000000000000000000000081525060200191505060405180910390fd5b826004836040518082805190602001908083835b60208310611d665780518252602082019150602081019050602083039250611d43565b6001836020036101000a03801982511681845116808217855250505050505090500191505090815260200160405180910390209080519060200190611dac92919061263d565b507f3375d0b034f52a6a64cd5b8a844719a7de8a2a9855426a6b395cbe376cb11d8c83838360400151604051808060200180602001848152602001838103835286818151815260200191508051906020019080838360005b83811015611e1f578082015181840152602081019050611e04565b50505050905090810190601f168015611e4c5780820380516001836020036101000a031916815260200191505b50838103825285818151815260200191508051906020019080838360005b83811015611e85578082015181840152602081019050611e6a565b50505050905090810190601f168015611eb25780820380516001836020036101000a031916815260200191505b509550505050505060405180910390a1505050565b600160009054906101000a900473ffffffffffffffffffffffffffffffffffffffff1681565b611ef56125f8565b6002826040518082805190602001908083835b60208310611f2b5780518252602082019150602081019050602083039250611f08565b6001836020036101000a03801982511681845116808217855250505050505090500191505090815260200160405180910390206040518060a0016040529081600082018054600181600116156101000203166002900480601f0160208091040260200160405190810160405280929190818152602001828054600181600116156101000203166002900480156120025780601f10611fd757610100808354040283529160200191612002565b820191906000526020600020905b815481529060010190602001808311611fe557829003601f168201915b50505050508152602001600182018054600181600116156101000203166002900480601f0160208091040260200160405190810160405280929190818152602001828054600181600116156101000203166002900480156120a45780601f10612079576101008083540402835291602001916120a4565b820191906000526020600020905b81548152906001019060200180831161208757829003601f168201915b5050505050815260200160028201548152602001600382015481526020016004820160009054906101000a900473ffffffffffffffffffffffffffffffffffffffff1673ffffffffffffffffffffffffffffffffffffffff1673ffffffffffffffffffffffffffffffffffffffff168152505090508060400151421161212957600080fd5b60006004836040518082805190602001908083835b60208310612161578051825260208201915060208101905060208303925061213e565b6001836020036101000a0380198251168184511680821785525050505050509050019150509081526020016040518091039020805460018160011615610100020316600290049050146121ff576040517f08c379a000000000000000000000000000000000000000000000000000000000815260040180806020018281038252603981526020018061271a6039913960400191505060405180910390fd5b6000809054906101000a900473ffffffffffffffffffffffffffffffffffffffff1673ffffffffffffffffffffffffffffffffffffffff163373ffffffffffffffffffffffffffffffffffffffff161461225857600080fd5b6000600160009054906101000a900473ffffffffffffffffffffffffffffffffffffffff1690506122876126bd565b6003846040518082805190602001908083835b602083106122bd578051825260208201915060208101905060208303925061229a565b6001836020036101000a0380198251168184511680821785525050505050509050019150509081526020016040518091039020604051806060016040529081600082018054600181600116156101000203166002900480601f0160208091040260200160405190810160405280929190818152602001828054600181600116156101000203166002900480156123945780601f1061236957610100808354040283529160200191612394565b820191906000526020600020905b81548152906001019060200180831161237757829003601f168201915b50505050508152602001600182015481526020016002820160009054906101000a900473ffffffffffffffffffffffffffffffffffffffff1673ffffffffffffffffffffffffffffffffffffffff1673ffffffffffffffffffffffffffffffffffffffff168152505090508173ffffffffffffffffffffffffffffffffffffffff1663a9059cbb826040015183602001516040518363ffffffff1660e01b8152600401808373ffffffffffffffffffffffffffffffffffffffff1673ffffffffffffffffffffffffffffffffffffffff16815260200182815260200192505050602060405180830381600087803b15801561248e57600080fd5b505af11580156124a2573d6000803e3d6000fd5b505050506040513d60208110156124b857600080fd5b8101908080519060200190929190505050507ff7800aba2ca3d82da5a758cb27bef1e918b1f2e874d337454de7d9ac31dc70a68482602001516040518080602001838152602001828103825284818151815260200191508051906020019080838360005b8381101561253757808201518184015260208101905061251c565b50505050905090810190601f1680156125645780820380516001836020036101000a031916815260200191505b50935050505060405180910390a150505050565b828054600181600116156101000203166002900490600052602060002090601f016020900481019282601f106125b957805160ff19168380011785556125e7565b828001600101855582156125e7579182015b828111156125e65782518255916020019190600101906125cb565b5b5090506125f491906126f4565b5090565b6040518060a0016040528060608152602001606081526020016000815260200160008152602001600073ffffffffffffffffffffffffffffffffffffffff1681525090565b828054600181600116156101000203166002900490600052602060002090601f016020900481019282601f1061267e57805160ff19168380011785556126ac565b828001600101855582156126ac579182015b828111156126ab578251825591602001919060010190612690565b5b5090506126b991906126f4565b5090565b60405180606001604052806060815260200160008152602001600073ffffffffffffffffffffffffffffffffffffffff1681525090565b61271691905b808211156127125760008160009055506001016126fa565b5090565b9056fe4c616e646c6f72642068617320616c726561647920676976656e2074686520646f6f7220636f64652e4e6f20726566756e6420676976656e2ea265627a7a7231582076d97ec702bb9adf4b37b38482f9b5bcd8e034790e061d76e25b80d3ee3ebac164736f6c63430005100032",
  "source": "pragma solidity ^0.5.16;\n\nimport \"./leaseToken.sol\";\n\n\ncontract houseLease{\n    \n     \n    address payable public holdingWalletAddr;\n    address public token;\n    \n    \n    \n    \n    \n    mapping (string=>Landlord)   leaseLandlord;\n    mapping(string=>Tenant)    leaseTenant;\n    mapping (string=>string)  door_codes;\n    \n    // Event trigger when the buyer performs the safepay\n   event tenantPay(address tenant, string leaseId, uint value, uint256 timestamp);\n   event doorCodeSent(string  doorCode,string  leaseId,uint256 timestamp);\n   event leaseCreated(string  landlordName,address payable _landlordAddr,string  home_addr,uint256 timestamp,uint256 value,string  leaseId);\n   event refundDone(string leaseId,uint256 value);\n   event sendPayoutDone(string leaseId,uint256 value);\n   \n    \n    \n    struct Landlord{\n        string landlordName;\n        string home_addr;\n        uint256 timestamp; //timestamp is in unix timestamp\n        uint256 value;\n        address payable _landlordAddr;\n        \n     }\n     \n     struct Tenant{\n         string tenantName;\n         uint256 value;\n         address payable _tenantAddr;\n         \n         \n     }\n     \n     \n    \n    \n    \n    //the one who deploys the contract is the holding wallet\n    constructor(address payable _holdingWalletAddr,address _token) public{\n        \n        holdingWalletAddr= _holdingWalletAddr;\n        token=_token;\n        \n    }\n    //function called by landlord\n    function createLease(string memory landlordName,string memory home_addr,uint256 timestamp,uint256 value,string memory leaseId) public {\n        //value in wei\n        leaseLandlord[leaseId]=Landlord(landlordName,home_addr,timestamp,value,msg.sender);\n        emit leaseCreated(landlordName,msg.sender,home_addr,timestamp,value,leaseId);\n        \n        \n    }\n\n    function getLeaseData(string memory leaseId) public view returns (string memory landlordName, uint256 value){\n        \n        Landlord memory p = leaseLandlord[leaseId];\n        \n\t    return (p.landlordName, p.value);\n\n      \n    }\n    \n    //function called by tenant\n    function makePayment(string memory leaseId,string memory tenantName)  public  {\n\n        leaseToken _token=leaseToken(address(token)); \n       \n        Landlord memory p = leaseLandlord[leaseId];\n        \n        require(block.timestamp <= p.timestamp, \"Time expired for payment\");\n        \n        _token.transfer(holdingWalletAddr,p.value);\n        \n        leaseTenant[leaseId]=Tenant(tenantName,p.value,msg.sender);\n        emit tenantPay(msg.sender,leaseId,p.value,p.timestamp);\n        \n        \n        \n    }\n    //function called by landlord\n    function giveDoorCode(string memory doorCode,string memory leaseId)  public{\n        \n        Landlord memory p = leaseLandlord[leaseId];\n        require(block.timestamp <= p.timestamp, \"Time expired.\");\n        door_codes[leaseId]=doorCode;\n        \n        emit doorCodeSent(doorCode,leaseId,p.timestamp);\n        \n    }\n    \n    function getDoorCode(string memory leaseId) public view returns (string memory) {\n        \n        return door_codes[leaseId];\n        \n        \n    }\n    \n    //money paid out to landlord\n    function sendPayout(string memory leaseId) public {\n\n        \n        \n        require(bytes(door_codes[leaseId]).length!=0);//landlord give door code\n        require(msg.sender==holdingWalletAddr);\n\n        leaseToken _token=leaseToken(address(token)); \n        \n        Landlord memory p = leaseLandlord[leaseId];\n        _token.transfer(p._landlordAddr,p.value);\n        \n        emit sendPayoutDone(leaseId,p.value);\n        \n        \n        \n    }\n    \n    function refund(string memory leaseId) public {\n         Landlord memory p = leaseLandlord[leaseId];\n        \n        require(block.timestamp > p.timestamp);\n        require(bytes(door_codes[leaseId]).length==0,\"Landlord has already given the door code.No refund given.\");//landlord did not give door code\n        require(msg.sender==holdingWalletAddr);\n\n        leaseToken _token=leaseToken(address(token));\n        \n       \n        \n        Tenant memory t = leaseTenant[leaseId];\n        _token.transfer(t._tenantAddr,t.value);\n        emit refundDone(leaseId,t.value);\n        \n    }\n    \n    \n    \n    \n   \n    \n    \n   \n    \n    \n    \n    \n    \n    \n    \n    \n}\n\n\n ",
  "sourcePath": "C:/Users/zahir/dApps/solidity-truffle-web3-projects/houseLease/contracts/houseLease.sol",
  "compiler": {
    "name": "solc",
    "version": "0.5.16+commit.9c3226ce.Emscripten.clang"
  },
  "schemaVersion": "3.3.4",
  "updatedAt": "2021-03-31T13:54:38.187Z",
  "networkType": "ethereum",
  "devdoc": {
    "methods": {}
  },
  "userdoc": {
    "methods": {}
  }
}